:100000000C94DA000C9402010C9402010C9402018D
:100010000C9402010C9402010C9402010C94020154
:100020000C9402010C9402010C9402010C94020144
:100030000C9402010C9402010C9402010C94020134
:100040000C94D20E0C9402010C94A00E0C947A0E17
:100050000C9402010C9402010C9402010C94020114
:100060000C941C0F0C940201626C6E6B696E66003E
:1000700076657200312E302E3100682D6265617414
:1000800000343500627566662D696E0032353600C3
:100090006465760041726475696E6F20556E6F00FD
:1000A0006370750041546D65676133323850006389
:1000B0006F6E0053747265616D006275696C6400E7
:1000C00044656320323820323032312031393A34BD
:1000D000353A303800000000000000240027002AD4
:1000E0000000000000250028002B00000000080090
:1000F0000201000003040700000000000000003DB2
:10010000013D013D013D013D013D013D013D013DFF
:10011000013D013D013D013D013D013D013D013DEF
:10012000013D013D013D013D013D013D013D013DDF
:10013000013D013D013D013D013D013D013D013CD0
:10014000013C013C013C013C013C013C013C013CC7
:10015000013C013C013C013C013C013C013C013CB7
:10016000013C013C013C013C013C013C013C013CA7
:10017000013C013C013C013C013C013C013C0100D3
:1001800000000023002600290004040404040404E1
:100190000402020202020203030303030301020436
:1001A00008102040800102040810200102040810F9
:1001B00020003B1011241FBECFEFD8E0DEBFCDBF23
:1001C00011E0A0E0B1E0E8E4F3E302C005900D9295
:1001D000A63AB107D9F724E0A6EAB1E001C01D9222
:1001E000A33AB207E1F710E0CAEDD0E004C02197CE
:1001F000FE010E947B19C93DD107C9F70E94DB109F
:100200000C94A2190C940000CF92DF92EF92FF920F
:10021000CF93DF93B0916504A0E08111AB2F809163
:10022000660490E0880F991FAC0141585E4FC09062
:100230006B04D0906C04E0906D04F0906E0430E09C
:1002400020E0FA01C591D491E881B90190E080E005
:10025000EB23EA130AC02F5F3F4F6C157D058E0517
:100260009F0578F36FEF7FEFCB01DF91CF91FF9088
:10027000EF90DF90CF900895089508950895089520
:10028000AF92BF92CF92DF92EF92FF920F931F93A4
:10029000CF93DF936C017B018B01040F151FEB01E2
:1002A0005E01AE18BF08C017D10759F06991D60199
:1002B000ED91FC910190F081E02DC6010995892B0B
:1002C00079F7C501DF91CF911F910F91FF90EF90CA
:1002D000DF90CF90BF90AF900895FC01538D448D77
:1002E000252F30E0842F90E0821B930B541710F0E1
:1002F000CF96089501970895FC01918D828D9817EE
:1003000061F0A28DAE0FBF2FB11D5D968C91928DC5
:100310009F5F9F73928F90E008958FEF9FEF0895F6
:10032000FC01918D828D981731F0828DE80FF11DBF
:10033000858D90E008958FEF9FEF0895FC01918DDA
:10034000228D892F90E0805C9F4F821B91098F73D3
:100350009927089583E792E00E949E0121E0892B6E
:1003600009F420E0822F089580E090E0892B29F0A5
:100370000E94AA0181110C9400000895FC01A48D33
:10038000A80FB92FB11DA35ABF4F2C91848D90E0B7
:1003900001968F739927848FA689B7892C93A0899A
:1003A000B1898C91837080648C93938D848D981324
:1003B00006C00288F389E02D80818F7D80830895B7
:1003C000EF92FF920F931F93CF93DF93EC0181E0A5
:1003D000888F9B8D8C8D98131AC0E889F98980814C
:1003E00085FF15C09FB7F894EE89FF896083E8897F
:1003F000F98980818370806480839FBF81E090E071
:10040000DF91CF911F910F91FF90EF900895F62EFD
:100410000B8D10E00F5F1F4F0F731127E02E8C8D97
:100420008E110CC00FB607FCFACFE889F9898081DC
:1004300085FFF5CFCE010E94BE01F1CFEB8DEC0F11
:10044000FD2FF11DE35AFF4FF0829FB7F8940B8FF9
:10045000EA89FB8980818062CFCFCF93DF93EC0163
:10046000888D8823B9F0AA89BB89E889F9898C919C
:1004700085FD03C0808186FD0DC00FB607FCF7CF58
:100480008C9185FFF2CF808185FFEDCFCE010E9458
:10049000BE01E9CFDF91CF910895833081F028F438
:1004A000813099F08230A9F008958730A9F0883022
:1004B000C9F08430B1F4809180008F7D03C08091B9
:1004C00080008F7780938000089584B58F7784BDF6
:1004D000089584B58F7DFBCF8091B0008F77809396
:1004E000B00008958091B0008F7DF9CF1F93CF9316
:1004F000DF93282F30E0F901E551FF4F8491F90196
:10050000E356FE4FD491F901E757FE4FC491CC2337
:10051000A9F0162F81110E944D02EC2FF0E0EE0F92
:10052000FF1FEF51FF4FA591B4918FB7F894EC9155
:10053000111108C0D095DE23DC938FBFDF91CF91DE
:100540001F910895DE2BF8CFCF93DF9390E0FC014D
:10055000E356FE4F249187579E4FFC0184918823D8
:10056000C9F090E0880F991FFC01E952FF4FA59157
:10057000B491FC01EF51FF4FC591D49161110DC0B1
:100580009FB7F8948C91209582238C93888128239F
:1005900028839FBFDF91CF910895623051F49FB7B8
:1005A000F8943C91822F809583238C93E8812E2BA5
:1005B000EFCF8FB7F894EC912E2B2C938FBFEACF0F
:1005C0001F93CF93DF93182FEB0161E00E94A402E9
:1005D000209739F460E0812FDF91CF911F910C9427
:1005E0007602CF3FD10511F461E0F5CFE12FF0E0C5
:1005F000E551FF4FE491E33031F140F4E130B1F0E7
:10060000E230E1F0C038D1057CF7E4CFE73029F1E2
:10061000E83059F1E430B1F7809180008062809336
:100620008000D0938B00C0938A0004C084B580689A
:1006300084BDC7BDDF91CF911F91089584B58062BD
:1006400084BDC8BDF7CF8091800080688093800012
:10065000D0938900C0938800EDCF8091B00080686E
:100660008093B000C093B300E5CF8091B00080626A
:100670008093B000C093B400DDCF8E3008F08E5070
:100680008770806480937C0080917A00806480937E
:100690007A0080917A0086FDFCCF8091780090915D
:1006A000790008953FB7F89480915D0290915E02C1
:1006B000A0915F02B091600226B5A89B05C02F3FB4
:1006C00019F00196A11DB11D3FBFBA2FA92F982F78
:1006D0008827BC01CD01620F711D811D911D42E073
:1006E000660F771F881F991F4A95D1F708958F923B
:1006F0009F92AF92BF92CF92DF92EF92FF926B01E7
:100700007C010E9452034B015C01C114D104E1043D
:10071000F104B9F00E945203681979098A099B090A
:10072000683E73408105910580F321E0C21AD1082B
:10073000E108F10888EE880E83E0981EA11CB11C28
:10074000E4CFFF90EF90DF90CF90BF90AF909F905D
:100750008F9008952FB7F8946091590270915A02C2
:1007600080915B0290915C022FBF0895CF92DF923F
:10077000EF92FF920F931F93CF93DF93CDB7DEB726
:10078000C054D1400FB6F894DEBF0FBECDBF0E945B
:10079000AA030091670410916804209169043091C4
:1007A0006A046B017C01C01AD10AE20AF30A9701BC
:1007B0008601003D17402105310590F480916F04BA
:1007C000C05CDE4F0FB6F894DEBF0FBECDBFDF9129
:1007D000CF911F910F91FF90EF90DF90CF900895F0
:1007E00060936704709368048093690490936A042B
:1007F00010926204109261041092600410925F04DF
:1008000010925E0462E0809163040E94A40261E0A1
:1008100070E080E090E00E94770361E080916304E3
:100820000E94A40260E0809163040E94760280919D
:1008300064048551823020F58BE291E10197F1F754
:1008400062E0809163040E94A4028091700490E0B1
:100850008230910538F0880F991F880F991F0597EE
:100860000197F1F7F89480E00E9404016F3F7F4FF9
:100870008F4F9F4F61F410926F04789480E0A0CF67
:1008800064E170E080E090E00E947703D9CF81E0DE
:100890000E9404016F3F7F4F8F4F9F4F61F38E0186
:1008A0000F5F1F4F6E012FEBC21A2EEFD20A780195
:1008B00080E00E940401F701608371838283938347
:1008C00081E00E940401F701648375838683978326
:1008D000F8E0EF0EF11CEC14FD0451F7789430E0D1
:1008E00020E0F801C080D180E280F380448155810E
:1008F00066817781FFEFCF16DF06EF06FF0631F046
:100900004F3F8FEF58076807780719F410926F046C
:10091000B5CFF90183E0F595E7958A95E1F7E25ABD
:10092000FB4F8081880FC416D506E606F70610F146
:1009300080832F5F3F4F085F1F4F2832310589F6B4
:100940004091620420915E0480915F04280F332758
:10095000331F80916004280F311D80916104820F44
:10096000932F911D99274817190681F681E08093EE
:100970006F0426CF8160DCCF20910E02260F332733
:10098000331F21323105ECF420913202FC0190E05A
:1009900080E0243069F082E00895A0910E02219158
:1009A000AC0142515E4FA40FB52FB11D2C9301969F
:1009B000861798F380910E02680F60930E0280E014
:1009C000089581E008951092320281E0809334020C
:1009D0001092330261E082E10E94760261E083E1DD
:1009E0000E947602E9EBF0E080818E7F8083808137
:1009F0008D7F808388E48093B80085E48093BC0079
:100A00000895CF93DF9391E09093ED018823B9F09F
:100A1000C091B800D091BA008091BC008A7B8093CD
:100A2000BC0060E082E10E94760260E083E10E9407
:100A300076020E94E304D093BA00C093B800DF911D
:100A4000CF910895E091680280916702E81730F431
:100A5000F0E0E853FE4F808190E008958FEF9FEF24
:100A6000089590916802809167022FEF3FEF9817E9
:100A700048F4E92FF0E0E853FE4F208130E09F5F1B
:100A800090936802C901089580916702909168026D
:100A9000891B990B0895CF92DF92EF92FF920F93EB
:100AA0001F93CF93DF937C01CB018A012091C70173
:100AB000222389F0EB016B01C40ED51ECC15DD0598
:100AC00069F06991D701ED91FC910190F081E02DE1
:100AD000C7010995F3CF642F0E94BC04C801DF91C0
:100AE000CF911F910F91FF90EF90DF90CF900895DD
:100AF000CF93DF931F92CDB7DEB769832091C701F3
:100B00002223F9F020916502203258F021E030E0F4
:100B1000FC013383228390E080E00F90DF91CF913E
:100B2000089580916602E82FF0E0E955FE4F998123
:100B300090838F5F809366028093650281E090E0EE
:100B4000ECCF61E0CE0101960E94BC04F7CFCF92BA
:100B5000DF92EF92FF920F931F93CF93DF93FC01ED
:100B6000C48121E02093C701C093A60110926602C0
:100B7000109265028385682B80E193E00E947805DE
:100B8000D0916502D13208F092C00E9452036B01ED
:100B90007C0180913202811165C082E08093320233
:100BA00081E0809334028FEF8093310210925602DD
:100BB000D0935502A7EAB1E0E5E3F2E080E0D81374
:100BC00085C01092570280915702CC0FC82BC0935A
:100BD000570280913302813009F07CC010923302B9
:100BE0000E9452036B017C01809157028093BB00ED
:100BF0008091E9019091EA01A091EB01B091EC01A3
:100C0000892B8A2B8B2B99F00E9452030091E901CA
:100C10001091EA012091EB013091EC016C197D09F2
:100C20008E099F090617170728073907E0F18091F9
:100C3000BC0083FDD9CF85EC8093BC000E94520399
:100C40006B017C0180913202823009F445C08091B1
:100C500031028F3F61F180913102803241F1809108
:100C6000310225C08091E9019091EA01A091EB0148
:100C7000B091EC01892B8A2B8B2B09F48ACF0E942F
:100C800052030091E9011091EA012091EB013091AA
:100C9000EC016C197D098E099F09061717072807B3
:100CA000390708F076CF8091E8010E940105109283
:100CB0006602109265021092C701DF91CF911F91D9
:100CC0000F91FF90EF90DF90CF9008959D919193B9
:100CD0008F5F75CF85EEB0CF8091E9019091EA01E9
:100CE000A091EB01B091EC01892B8A2B8B2B09F49D
:100CF000A9CF0E9452030091E9011091EA012091CD
:100D0000EB013091EC016C197D098E099F090617E2
:100D100017072807390708F095CFC5CF90E080E086
:100D200008958F929F92AF92BF92CF92DF92EF92EF
:100D3000FF920F931F93CF93DF936C017B018B0185
:100D4000040F151F0E94AA034B015C01E701C017A5
:100D5000D107C8F40E94AA03681979098A099B0976
:100D6000603777418105910570F4D6018D919C9192
:100D7000DC01ED91FC910284F385E02D099597FD4E
:100D8000E6CF8993E4CFCE018E199F09DF91CF91F1
:100D90001F910F91FF90EF90DF90CF90BF90AF9099
:100DA0009F908F90089580917102909172020197A7
:100DB0009C012F5F3F4F22303105C8F7909372029C
:100DC0008093710208950895CF93DF93D82FC8E0E0
:100DD0006D2F617084E00E947602D69561E082E01A
:100DE0000E94760260E082E00E947602C15081F7A4
:100DF000DF91CF9108950F931F93CF938C01C62F4E
:100E00000E94A7056C2F6460C8010E94A7056C2F83
:100E10006B7FC8010E94A70583EC90E00197F1F772
:100E2000CF911F910F9108950F931F93CF93DF934D
:100E30008C01D62FC42F607F642B0E94FB0680E1BB
:100E4000D89FB00111246C2BC801DF91CF911F9165
:100E50000F910C94FB06CF93DF93CDB7DEB72897A5
:100E60000FB6F894DEBF0FBECDBF98E0E7E4F1E027
:100E7000DE01119601900D929A95E1F790917F0411
:100E8000961708F46FEF262F30E0220F331F41E052
:100E900050E04C0F5D1F240F351FF9016081680F72
:100EA000606840E087E794E028960FB6F894DEBFCC
:100EB0000FBECDBFDF91CF910C94140741E00E948B
:100EC000140781E090E00895DC01ED91FC91119709
:100ED000309761F012962D913C911397E217F3072A
:100EE00028F401900020E9F7ED93FC930895FC01AC
:100EF00080819181009739F0228133818217930795
:100F000010F40C94AA1690E080E0089585ED80938B
:100F1000BC008091E9019091EA01A091EB01B091B0
:100F2000EC010796A11DB11D23E0B695A7959795F5
:100F300087952A95D1F72091BC0024FD03C010921B
:100F4000320208954091E9015091EA016091EB016C
:100F50007091EC01452B462B472B69F30097A105B7
:100F6000B10541F025E32A95F1F700000197A109A9
:100F7000B109E1CF8091E8010C9401050F931F9313
:100F8000CF93DF93EC01FB0101900020E9F78F0183
:100F9000061B170B8A819B81A801480F591F2C81C2
:100FA0003D812417350768F028813981A801820F17
:100FB000931F0E9481194A815B81400F511F5B83FF
:100FC0004A83DF91CF911F910F9108950F931F9343
:100FD000CF93DF93CDB7DEB762970FB6F894DEBF3D
:100FE0000FBECDBF8C01CB014AE0BE016F5F7F4FCA
:100FF0000E94D116BE016F5F7F4FC8010E94BE07DD
:1010000062960FB6F894DEBF0FBECDBFDF91CF91D1
:101010001F910F9108953F924F925F926F927F922E
:101020008F929F92AF92BF92CF92DF92EF92FF92F8
:101030000F931F93CF93DF93CDB7DEB7A1970FB672
:10104000F894DEBF0FBECDBF6C012DB73EB739A3FC
:1010500028A360E070E0CB010E947703D601579689
:101060008D919C915897B12C029709F41EC3569606
:101070008C9156978F5F56968C93569754962D91D8
:101080003C915597232B19F0BB24B39407C38330AD
:10109000D8F7ED91FC918281882309F4E4C2FE0126
:1010A00031963F01D601ED91FC9180819181DC0167
:1010B000ED91FC910084F185E02D09951816190633
:1010C0000CF0D1C245E050E0BE01695E7F4FF601F1
:1010D000808191810E949106009721F3059709F084
:1010E0004AC0888D998D982789279827998F888F4E
:1010F000EA8CFB8CFE24EF24FE24FB8EEA8E892BE7
:10110000D1F18F89811142C00E94AA03D60116969F
:101110006D937D938D939C93199757962D913C9148
:1011200058974A8D5B8D232B61F5288D398D2130A1
:10113000310539F549305105C1F0483C510519F0E8
:1011400044305105C1F4F60166877787808B918B17
:1011500021E030E0308F278BC6010E94280D60E02F
:1011600070E0CB010E9477039DCF83E090E058961A
:101170009C938E935797D601ED91FC911282B12CDE
:101180008DC24530510509F08DCFF5CFF601808134
:101190009181F1E0EF16FF0640F0D60158961C92BF
:1011A0001E925797FC0112827DCFADB6BEB6970155
:1011B0002F5F3F4F4DB75EB7421B530B0FB6F894EE
:1011C0005EBF0FBE4DBF0DB71EB70F5F1F4FA7010C
:1011D000B8010E9491068E159F0509F067C0EA8D3F
:1011E000FB8DE00FF11F10820E94AA03D601169614
:1011F0006D937D938D939C9319978F89813109F419
:101200001DC228F58630B1F08F3009F485C08230D8
:1012100021F5F6018789908D892B61F421E030E07A
:10122000308F278BC6010E94280D60E070E0CB0153
:101230000E947703488D598DF12CE12C08EC10E0C9
:1012400030E020E060E0C6010E94210C12C08D3128
:1012500001F358F4843109F45FC0F601108E178A47
:101260000190F081E02D128204C0893241F0873371
:10127000A1F70FB6F894BEBE0FBEADBE13CF149645
:101280008D919C91892B39F480E490E00E94851522
:10129000F601958384838A8D9B8D800F911F1A831D
:1012A00009839C838B830817190730F00FB6F894D5
:1012B000BEBE0FBEADBE5FCF40E450E0B801D60168
:1012C00014968D919C910E949319D6011496ED91DC
:1012D000FC9117AEC3010E946407D601ED91FC9109
:1012E0001197128258961C921E9257970E94AA0339
:1012F000DC01CB0188589341A109B109F60182872D
:101300009387A487B58786839783A087B1878687CD
:101310009787A08BB18BADCF888D998DD6015596CF
:101320009C938E9354974A8C5B8C4801840C951C3B
:101330001D8F0C8F9F8E8E8E0815190508F011C118
:10134000F801E080F180CE014C960E946407DC0138
:101350008D919C918815990508F003C18C8D9D8D08
:10136000FC012081213459F401960E94AA164EE016
:10137000342E380E069744F033243A9405C0CE013B
:101380004C960E947707382EF6E7EF16F2E7FF0635
:1013900009F404C138F531E6E31632E7F30609F43F
:1013A000E4C044E6E41642E7F40609F478C050E7E6
:1013B000E5165DE6F50609F035C18C8D9D8D881525
:1013C000990508F0CEC0FC0120812134A9F50196D1
:1013D0000E94AA163EE0F32EF80E069794F1FF2421
:1013E000FA942FC084E6E81687E7F80609F4A0C04F
:1013F00096E7E91697E7F90609F4E7C0A1E6EA16C9
:10140000A7E7FA0609F00EC1CE014C960E946407C8
:10141000DC018D919C918815990508F0A2C061E0CE
:10142000832D0E94A402CE014C960E947707BC0136
:10143000832D0E94E00295C0CE014C960E94770752
:10144000F82ECE014C960E9464070C8D1D8D69E824
:1014500071E0C8010E948A1960E0892B79F06CE87C
:1014600071E0C8010E948A19892B39F060E971E0A6
:10147000C8010E948A19892B49F461E08F2D0E94CE
:10148000A402CE014C960E94640797CF64E971E0F4
:10149000C8010E948A19892BA1F762E0EFCF7A8AEE
:1014A000698A1C8A1B8A20E130E03E8B2D8B67E91C
:1014B00071E0CE0141960E94BE07032D10E0B801F5
:1014C000CE0141960E94E607F801E551FF4F849155
:1014D000F801E356FE4FF49007571E4FF8010491B0
:1014E00060E070E0002389F081110E944D02E02F3E
:1014F000F0E0EE0FFF1FE158FE4FA591B491EC9183
:10150000FE2261E070E009F460E0CE0141960E94A5
:10151000E6070B891C890150110929893A89F12CA8
:10152000E12C50E040E064E1C6010E94210C19C0AA
:10153000CE014C960E946407DC018D919C91881528
:10154000990578F461E0832D0E94A402CE014C96A7
:101550000E94770761E0892B09F460E0832D0E94E7
:101560007602F601158A148A84CE7A8A698A1C8AE0
:101570001B8AE0E1F0E0FE8BED8B6AE971E0CE01C1
:1015800041960E94BE07632D70E0CE0141960E94F5
:10159000E607832D0E943D03BC01B7CF3982BFE12E
:1015A000B315F8F2E32DF0E0EE0FFF1FE150FF4F0F
:1015B0002591349121153105A1F2E1E02D333E074B
:1015C00081F2C301F9010995CCCFCE014C960E945E
:1015D00064078C8D9D8D9C01201B310B421A530A90
:1015E0009A8389835C824B825E824D82398AFFE1D5
:1015F000F31508F4B6CFE32DF0E0EE0FFF1FE15C2A
:10160000FE4F259134912115310509F4AACF41E00F
:101610002C33340709F4A5CFB301CE014196F9016B
:1016200009959FCFD60154964D915C91F12CE12CF8
:1016300002E010E030E020E060E076CF8A8D9B8D04
:10164000800F911F1A8309839C838B8308171907C6
:1016500008F00FCEC3010E946407D60155961C9274
:101660001E92549706CE0E94AA032B013C01F6015C
:1016700000811181D8011296BC9012978789908DB4
:101680008130910509F088C0B1102FC04686578679
:10169000608A718A108E178A12961C92D60156960D
:1016A0008C915697815056968C938B2DE8A1F9A179
:1016B0000FB6F894FEBF0FBEEDBFA1960FB6F8941B
:1016C000DEBF0FBECDBFDF91CF911F910F91FF9075
:1016D000EF90DF90CF90BF90AF909F908F907F90D2
:1016E0006F905F904F903F90089586819781A0857D
:1016F000B185A3019201281B390B4A0B5B0BDA0160
:10170000C901893136EF9307A105B10530F0108E7C
:10171000178AD80112961C9232CD893C9F4AA105A6
:10172000B10598F4F60182859385A485B585A3015A
:101730009201281B390B4A0B5B0BDA01C901893C6A
:101740009F4AA105B10508F49FCCF60186859785CF
:10175000A089B189A3019201281B390B4A0B5B0BAD
:10176000DA01C90181379741A105B10508F48CCC94
:10177000F12CE12C10E000E030E020E050E040E00F
:1017800066E0C6010E94210CD6011E964D925D9224
:101790006D927C92519782CF892B09F075CC86850A
:1017A0009785A089B189481A590A6A0A7B0ABB2021
:1017B00079F0F1E74F16F7E15F066104710408F470
:1017C00063CCD80112961C92F601108E178AD7CCE2
:1017D000F9E84F16F3E15F066104710408F454CC94
:1017E000D8018D919C91DC01ED91FC910680F781EF
:1017F000E02D099581E0F801828381E090E0D60137
:1018000053969C938E93529712962D913C91F90189
:1018100001900020E9F731978F01021B130BF12C87
:10182000E12C41E050E06DE1C6010E94210CF6017F
:1018300082859385A485B58586879787A08BB18B94
:1018400023CC2F923F924F925F927F928F929F92E2
:10185000AF92BF92CF92DF92EF92FF920F931F93BE
:10186000CF93DF9300D000D01F92CDB7DEB77C01BD
:10187000762E6A015901DC01ED91FC918281882369
:1018800009F4AFC0862F8D7F09F4DDC0B6E06B1779
:1018900009F4D9C0EDE16E1709F4D5C0D701579608
:1018A0008D919C91019709F09CC0452B81F4F70123
:1018B000C488D588C114D10451F4828993890196D2
:1018C00009F4A6C0938B828BF701C288D38884EF7A
:1018D000870D8930B0F5D7011A964D915D916D91C4
:1018E0007C911D9716968D919D910D90BC91A02D88
:1018F00084179507A607B70710F4DB01CA011C017E
:101900002D01E2E42E0E311C411C511C0E94AA0341
:10191000A2019101261B370B480B590BDA01C901B3
:10192000B7FD7BC0C7010E940B080E94AA03A20159
:101930009101261B370B480B590BDA01C901B7FF80
:10194000F1CF4801B5E08B0E911CA114B10419F43C
:1019500085E0882E912C7982DC24CD24DC24DB8266
:10196000CA82902F812F9D838C83D701ED91FC91AA
:1019700080819181DC01ED91FC910280F381E02D69
:1019800045E050E0BE016F5F7F4F099560E070E079
:10199000CB010E947703772009F448C00115110597
:1019A00009F444C0D701ED91FC9180819181DC0163
:1019B000ED91FC910280F381E02DA801B50109951C
:1019C0000B5F1F4F60E070E0CB010E947703801631
:1019D000910679F1F701108E178A0190F081E02DC0
:1019E00012820F900F900F900F900F90DF91CF9178
:1019F0001F910F91FF90EF90DF90CF90BF90AF902D
:101A00009F908F907F905F904F903F902F90089580
:101A100081E090E0938B828B57CFD70156968C91C3
:101A200081118FCFC7010E940B088BCF05E010E01A
:101A3000CECF0E94AA03D7011A966D937D938D9302
:101A40009C931D97CECFC114D10409F07ACF2FCF2C
:101A5000CF92DF92EF92FF920F931F93CF93DF937A
:101A6000CDB7DEB7C55AD1090FB6F894DEBF0FBEA9
:101A7000CDBF6C0145E650E060E770E0CE01019615
:101A80000E94C816CE018A599F4F7C0105E610E0DE
:101A90009E012F5F3F4F50E040E061E1C6010E9490
:101AA000210CCB55DF4F0FB6F894DEBF0FBECDBF74
:101AB000DF91CF911F910F91FF90EF90DF90CF902A
:101AC0000895EF92FF920F931F93CF93DF93CDB7BB
:101AD000DEB7C658D1090FB6F894DEBF0FBECDBF32
:101AE0007C018B01CE010196CF57DF4F998388830C
:101AF000C158D040CD57DF4F19821882C358D0400B
:101B000080E890E0CB57DF4F99838883C558D04059
:101B10006DE971E0CE018F579F4F0E94BE07B7015C
:101B2000CE018F579F4F0E94E607B801CE018F5715
:101B30009F4F0E94E607CD57DF4F08811981C35898
:101B4000D04001501109CF57DF4F28813981C1584A
:101B5000D040F12CE12C50E040E064E183E894E0D7
:101B60000E94210CCA57DF4F0FB6F894DEBF0FBE9C
:101B7000CDBFDF91CF911F910F91FF90EF9008950E
:101B8000EF92FF920F931F93CF93DF93CDB7DEB702
:101B9000C658D1090FB6F894DEBF0FBECDBF7C0189
:101BA000162FCE010196CF57DF4F99838883C158F6
:101BB000D040CD57DF4F19821882C358D04080E8FB
:101BC00090E0CB57DF4F99838883C558D0406DE9AB
:101BD00071E0CE018F579F4F0E94BE07B701CE0123
:101BE0008F579F4F0E94E607612F70E0CE018F57FD
:101BF0009F4F0E94E607CD57DF4F08811981C358D8
:101C0000D04001501109CF57DF4F28813981C15889
:101C1000D040F12CE12C50E040E064E183E894E016
:101C20000E94210CCA57DF4F0FB6F894DEBF0FBEDB
:101C3000CDBFDF91CF911F910F91FF90EF9008954D
:101C40002FEFFC01218380816FEF90E00C94C00D99
:101C5000FC011182808160E090E00C94C00D6091E5
:101C60006B0270916C0281E090E00E94610D6091C6
:101C7000690270916A0282E090E00E94610D6091B9
:101C80006D0270916E0283E090E00E94610D809180
:101C90006F029091700282309105A1F485E794E083
:101CA0000E94200E83E794E00E94280E81E794E0D2
:101CB0000E94280E84EF91E090937202809371024B
:101CC0000C94D306019749F485E794E00E94280E0E
:101CD00083E794E00E94200EE9CF85E794E00E941C
:101CE000280E83E794E00E94280E81E794E00E948A
:101CF000200EE0CF1F920F920FB60F9211242F9358
:101D00003F934F935F936F937F938F939F93AF9383
:101D1000BF93EF93FF9383E792E00E94BE01FF9190
:101D2000EF91BF91AF919F918F917F916F915F9153
:101D30004F913F912F910F900FBE0F901F901895CC
:101D40001F920F920FB60F9211242F938F939F9390
:101D5000EF93FF93E0918302F09184028081E09100
:101D60008902F0918A0282FD1BC0908180918C02D1
:101D70008F5F8F7320918D02821741F0E0918C026A
:101D8000F0E0ED58FD4F958F80938C02FF91EF911D
:101D90009F918F912F910F900FBE0F901F901895CC
:101DA0008081F4CF1F920F920FB60F9211242F93C0
:101DB0003F938F939F93AF93BF93809159029091DC
:101DC0005A02A0915B02B0915C023091580223E06C
:101DD000230F2D3758F50196A11DB11D20935802F0
:101DE0008093590290935A02A0935B02B0935C02D5
:101DF00080915D0290915E02A0915F02B0916002BD
:101E00000196A11DB11D80935D0290935E02A09387
:101E10005F02B0936002BF91AF919F918F913F910C
:101E20002F910F900FBE0F901F90189526E8230F4B
:101E30000296A11DB11DD2CF1F920F920FB60F9225
:101E400011242F933F934F935F936F937F938F93BF
:101E50009F93AF93BF93EF93FF938091B900887FD7
:101E6000803609F44AC0F0F5883209F4A7C018F5A5
:101E7000803109F49BC0B8F4882309F4F9C0883094
:101E800009F494C0FF91EF91BF91AF919F918F9111
:101E90007F916F915F914F913F912F910F900FBE66
:101EA0000F901F901895883109F488C0803251F73F
:101EB0008093310214C0803409F49DC040F4803313
:101EC000B9F38833F9F68093310285ECB0C08035E0
:101ED00009F485C0883509F496C0883499F60E94C3
:101EE0008607D0CF883909F48CC038F5883729F0B7
:101EF00050F4883611F0803729F683E0809332025F
:101F00001092300257C0883809F47BC0803919F02C
:101F1000803809F0B7CF80913002803208F071C06C
:101F2000E091300281E08E0F809330028091BB00FF
:101F3000F0E0E05FFD4F80833DC0803B39F0E0F48E
:101F4000803A09F479C0883A09F09CCF84E0809304
:101F5000320210920F0210920E02E0916302F09191
:101F60006402099580910E0281110FC081E0809377
:101F70000E021092EE0109C0803C09F4A6CF883C05
:101F800009F4A3CF883B09F07DCFE0910F0281E0F7
:101F90008E0F80930F02F0E0E251FE4F808180931C
:101FA000BB0090910F0280910E0229C080915702D0
:101FB0008093BB0085EC8093BC0064CF9091560267
:101FC00080915502981758F5E091560281E08E0FE6
:101FD00080935602F0E0EB5CFD4F8081E9CFE09109
:101FE000560281E08E0F809356028091BB00F0E094
:101FF000EB5CFD4F808390915602809155029817BB
:10200000C8F285E8D8CFE091560281E08E0F809328
:1020100056028091BB00F0E0EB5CFD4F8083809125
:10202000340281115CCF81E08093330284EA809393
:10203000BC001092320226CF85EC8093BC00109237
:10204000320280913002803230F4E0913002F0E0D0
:10205000E05FFD4F10826091300270E0E09161021C
:10206000F091620280E192E00995109230020ACF6D
:102070001092310234CFE3E7F2E01382128288EE4D
:1020800093E0A0E0B0E084839583A683B7832DE539
:1020900031E03183208325EC30E03587248724EC40
:1020A00030E03787268720EC30E0318B208B21EC25
:1020B00030E0338B228B22EC30E0358B248B26EC06
:1020C00030E0378B268B118E128E138E148EE0E14A
:1020D000F3E01382128284839583A683B7838FE60D
:1020E00091E091838083ACE9B4E011961C921E923A
:1020F00012961C921297E3E8F4E0B183A083138256
:102100001282158214821682178210861186128618
:1021100013861486158616861786108A118A138AE6
:10212000128A158A148A168A108E178AE7E7F4E055
:102130001382128281E891E09183808387E2848315
:1021400084E1818784E082871386E5E7F4E085E017
:1021500080831182E3E7F4E086E080831182E1E787
:10216000F4E087E080831182AEE5B4E088E0159664
:102170008C9315978BE016968C931697E5EAF1E011
:10218000E4911796EC931797E1E9F1E0E491189642
:10219000EC93189740E85EE360E070E01D964D9385
:1021A0005D936D937C9350978FEF9FEF90935D04B9
:1021B00080935C040895CF93DF9300D000D000D0CB
:1021C000CDB7DEB7789484B5826084BD84B5816074
:1021D00084BD85B5826085BD85B5816085BD8091F2
:1021E0006E00816080936E0010928100809181006A
:1021F0008260809381008091810081608093810062
:10220000809180008160809380008091B100846023
:102210008093B1008091B00081608093B000809184
:102220007A00846080937A0080917A008260809343
:102230007A0080917A00816080937A0080917A00A0
:10224000806880937A001092C100E0918302F0913F
:10225000840282E08083E0917F02F091800210820C
:10226000E0918102F09182028FEC808310928B02C8
:10227000E0918702F091880286E08083E0918502F8
:10228000F0918602808180618083E0918502F091E7
:102290008602808188608083E0918502F0918602C9
:1022A000808180688083E0918502F0918602808140
:1022B0008F7D808380E091E09093860480938504F5
:1022C0000E94AA03DC01CB0188589341A109B109FE
:1022D00080938D0490938E04A0938F04B093900408
:1022E0008093890490938A04A0938B04B0938C0408
:1022F0008093910490939204A0939304B0939404D8
:10230000E0918304F091840483E792E091838083D9
:10231000E0918304F0918404128210929B04109245
:102320009A040E94AA036B017C0180919A04909107
:102330009B04019781F00E94AA036C197D098E0904
:102340009F09603576448105910528F483E894E07F
:102350000E940B08EACF80919A0490919B04019708
:10236000B9F61092680210926702109266021092FB
:1023700065020E94E3048EE391E0909364028093EF
:1023800063028FE391E09093620280936102109266
:102390007C0480918104823018F098E090937C0452
:1023A00080937F0462E370E080E090E00E94770316
:1023B0006091820487E794E00E94A70568EE73E0CD
:1023C00080E090E00E94770360E387E794E00E945A
:1023D000FB068BE496E40197F1F760E387E794E06E
:1023E0000E94FB064BE456E4CA010197F1F760E353
:1023F00087E794E00E94FB0683E592E00197F1F7FE
:1024000060E287E794E00E94FB0660917C046062D2
:1024100040E087E794E00E94140784E080937D0405
:1024200040E06CE087E794E00E94140740E061E040
:1024300087E794E00E9414078BE39FE10197F1F78F
:1024400082E080937E0440E066E087E794E00E94AB
:10245000140740E062E087E794E00E941407ABE3D2
:10246000BFE11197F1F761E087E00E94A40261E00B
:1024700086E00E94A40261E085E00E94A40260E080
:102480008FE00E94A40260E080E10E94A40261E06B
:1024900084E00E94A40261E083E00E94A40261E063
:1024A00082E00E94A40262E0809163040E94A40280
:1024B0000E94AA03605D77408109910960936704D7
:1024C000709368048093690490936A0487E380930F
:1024D000700480915C0490915D0497FF17C00E9486
:1024E000AA03ECE1F3E024E1DF01322F1D923A95DB
:1024F000E9F76083718382839383749644E0EC35BB
:10250000F40791F710925D0410925C0480915C04D2
:1025100090915D04409774F4ECE1F3E090E080E08A
:1025200024813581232B09F4BEC201967496803133
:102530009105B1F744244A9483E0582E612C712C04
:1025400022242394312C76C28551823008F080C237
:10255000B0916004B9836B2F70E0762F66276627F1
:102560007F7780916104682B90E080E00E940C18D6
:102570002DEC3CEC4CEC5DE30E949A18E981E7FFFE
:102580002CC066C06091600470E090E080E00E9422
:102590000C186B017C0150916104598357FF0AC0EC
:1025A000AC019B0160E070E080E89FEB0E9469173E
:1025B0006B017C0189818F708983682F70E090E0C6
:1025C00080E00E940E182DEC3CEC4CEC5DE30E9488
:1025D0009A18A70196010E946A170E94D61769836C
:1025E0006D8360936B0270936C020E94B603882324
:1025F00051F0809164048B3030F08D3058F185516A
:10260000823008F4FFC060E070E080EC9FE73EC0DD
:10261000909160049983692F70E090E080E00E94BF
:102620000C186B017C01609161046F7070E090E0A8
:1026300080E00E940E182DEC3CEC4CEC5DE30E9417
:102640009A18A70196010E946A17A981A7FFC5CF12
:102650009058C3CF60915F0470E090E080E00E94EA
:102660000E182DEC3CEC4CEC5DE30E949A186B01CB
:102670007C0160915E0470E090E080E00E940E18A2
:102680009B01AC01C701B6010E946A170E94D617D0
:10269000162F6093690270936A0270E090E080E008
:1026A0000E940C189B01AC010E94071981110EC0F9
:1026B000F9816F2F70E090E080E00E940C189B0180
:1026C000AC010E940719882309F4AEC040E061E024
:1026D00087E794E00E9414078BE39FE10197F1F7ED
:1026E00060E085E00E942B0745E050E060EA71E081
:1026F00087E794E00E9440016AE070E080E090E0AB
:102700000E9477038FE00E943D0324E630E0DC0165
:102710000E946019A30192010E940E172C3331050B
:102720000CF49AC022E030E03093700220936F02E4
:102730006AE070E080E090E00E94770380E10E9410
:102740003D0324E630E0DC010E946019A301920100
:102750000E940E17690170E060E057E4C516D104CD
:1027600014F466E970E089E00E94E00270E060E045
:102770008AE00E94E002D0926E02C0926D026AE08E
:1027800070E080E090E00E94770360E080E00E94CB
:102790002B07A1E3B1E00D900020E9F7AD01425312
:1027A000514061E371E087E794E00E94400161E0FD
:1027B00080E00E942B07E1E2F1E001900020E9F7C0
:1027C000AF014252514061E271E087E794E00E941C
:1027D000400180916F02909170028130910509F45F
:1027E0003CC18230910509F448C0892B09F051C0E1
:1027F00060E087E00E94760260E086E00E94760258
:1028000061E044C060915E0470915F0476276727A1
:10281000762790E080E00E940C182DEC3CEC4CEC0C
:102820005DE30E949A1832CF2AE08D81622F0E94C8
:102830004019805D80933801905D909339018FED50
:1028400080933C01812F0E944019805D8093280174
:10285000905D9093290150CF2E5131092E313105D1
:1028600038F441E050E05093700240936F0260CF23
:102870001092700210926F025BCF61E087E00E94BD
:10288000760260E086E00E94760260E085E00E94C9
:10289000760220916D0230916E023A83298360E0C6
:1028A00083E00E94760289819A816AE070E00E944A
:1028B0004C199A838983615B7E4FDB018C910E9466
:1028C000E406E981FA81E15BFE4F80810E94E40623
:1028D00061E083E00E94760283E894E00E940B08A6
:1028E0000E94AA0369837A838B839C830CE113E0A3
:1028F0001E830D83AD81BE8153961C921E9252970A
:1029000014968D919C911597892BA9F18D909D908E
:10291000AD90BC90139769817A818B819C816819F5
:1029200079098A099B091996CD90DD90ED90FC906C
:102930001C976C157D058E059F05E8F0A701960193
:102940000E943817C701B6010E943019860E971EE3
:10295000A81EB91EED81FE8180829182A282B3827F
:102960008189882341F0258536852115310509F0B7
:102970007AC0338A228A2D813E812C5E3F4F3E836E
:102980002D834CE554E04217530709F0B3CFD8012B
:1029900052968D919C915397892B99F11496ED91B4
:1029A000FC91159718968C911897882309F479C093
:1029B00016968D919C910995F801828993890297C9
:1029C00001F580915C0490915D04892BD1F08481A4
:1029D0009581892BB1F0D801E4E11D92EA95E9F7E0
:1029E0000E94AA03D8016D937D938D939C931397B6
:1029F00080915C0490915D04019790935D048093B5
:102A00005C040C5E1F4FED81FE810E171F0709F05D
:102A1000BECF28EE33E030937202209371020E9401
:102A2000D30640E050E0452B29F00E94AA01811115
:102A30000E9400000E94B603882351F08091640434
:102A40008C3009F4E5CD08F07FCD8B3009F49ACDB8
:102A500060E070E080EC9FE7C0CD60E087E00E941E
:102A6000760261E00FCFAD81BE811F968D919C9162
:102A700050978217930708F07ECF53963C922E9280
:102A80005297019650969C938E931F9782179307A7
:102A900008F471CFE2E0F0E05396FC93EE93529786
:102AA0006ACF099589CF24E1289FD001299FB00DD5
:102AB0001124A45EBC4FBA83A98388EE93E0A0E002
:102AC000B0E0E981FA8181879287A387B4878FE29A
:102AD0009EE095838483178216821086168615865B
:102AE00081E0818B0E94AA03A981BA816D937D93B5
:102AF0008D939C93139780915C0490915D04019653
:102B000090935D0480935C0415CD0F931F93CF9336
:102B1000DF938230910510F482E090E0E091A1040F
:102B2000F091A20430E020E0B0E0A0E0309799F40A
:102B30002115310509F44AC0281B390B2430310511
:102B4000D8F58A819B816115710589F1FB01938319
:102B50008283FE0111C04081518102811381481797
:102B60005907E0F04817590799F4109761F0129649
:102B70000C93129713961C933296CF01DF91CF914D
:102B80001F910F9108950093A1041093A204F4CF14
:102B90002115310551F04217530738F0A901DB0127
:102BA0009A01BD01DF01F801C1CFEF01F9CF909388
:102BB000A2048093A104CDCFFE01E20FF31F819305
:102BC00091932250310939832883D7CF20919F04D4
:102BD0003091A004232B41F4209143013091440112
:102BE0003093A00420939F04209141013091420131
:102BF0002115310541F42DB73EB740914501509163
:102C00004601241B350BE0919F04F091A004E217CC
:102C1000F307A0F42E1B3F0B2817390778F0AC01FF
:102C20004E5F5F4F2417350748F04E0F5F1F5093DC
:102C3000A00440939F04819391939FCFF0E0E0E044
:102C40009CCFCF93DF930097E9F0FC01329713827A
:102C50001282A091A104B091A204ED0130E020E025
:102C60001097A1F420813181820F931F20919F043E
:102C70003091A0042817390709F061C0F093A0042F
:102C8000E0939F04DF91CF910895EA01CE17DF070B
:102C9000E8F54A815B819E0141155105B1F7E901D3
:102CA000FB83EA8349915991C40FD51FEC17FD07A7
:102CB00061F4808191810296840F951FE9019983C7
:102CC0008883828193819B838A83F0E0E0E012967F
:102CD0008D919C9113970097B9F52D913C91119787
:102CE000CD010296820F931F20919F043091A00482
:102CF0002817390739F6309751F51092A20410922F
:102D0000A104B093A004A0939F04BCCFD383C2833B
:102D100040815181840F951FC817D90761F44E5F18
:102D20005F4F88819981480F591F518340838A8161
:102D30009B81938382832115310509F0B0CFF093F5
:102D4000A204E093A1049ECFFD01DC01C0CF138259
:102D50001282D7CFFC0188279927E894219120324D
:102D6000E9F3293010F02E30C8F32B3241F02D3228
:102D700039F4689404C00E94DC16820F911D2191E1
:102D800020532A30C0F31EF4909581959F4F0895EB
:102D9000FB01DC0102C005900D9241505040D8F774
:102DA0000895BB274A3031F4992322F4BDE290956F
:102DB00081959F4F0C94E5167AE0979F902D879F01
:102DC000802D910D11240895BB27FB015527AA27BB
:102DD000880F991FAA1FA41710F0A41B83955051A8
:102DE000B9F7A05DAA3308F0A95DA193009779F720
:102DF000B111B1931192CB010C94FE16DC01FC01D0
:102E0000672F71917723E1F7329704C07C916D931E
:102E100070836291AE17BF07C8F30895052E97FB24
:102E20001EF400940E94251757FD07D00E94381702
:102E300007FC03D04EF40C9425175095409530951F
:102E400021953F4F4F4F5F4F089590958095709516
:102E500061957F4F8F4F9F4F08950E945A17A59FEE
:102E6000900DB49F900DA49F800D911D1124089585
:102E7000A1E21A2EAA1BBB1BFD010DC0AA1FBB1F7E
:102E8000EE1FFF1FA217B307E407F50720F0A21BF0
:102E9000B30BE40BF50B661F771F881F991F1A945D
:102EA00069F760957095809590959B01AC01BD0187
:102EB000CF010895A29FB001B39FC001A39F700DE1
:102EC000811D1124911DB29F700D811D1124911D32
:102ED00008955058BB27AA270E9481170C946018A8
:102EE0000E94521838F00E94591820F039F49F3F80
:102EF00019F426F40C944F180EF4E095E7FB0C94AB
:102F00004918E92F0E94711858F3BA17620773071E
:102F10008407950720F079F4A6F50C9493180EF425
:102F2000E0950B2EBA2FA02D0B01B90190010C01D9
:102F3000CA01A0011124FF27591B99F0593F50F4F1
:102F4000503E68F11A16F040A22F232F342F442749
:102F5000585FF3CF469537952795A795F040539541
:102F6000C9F77EF41F16BA0B620B730B840BBAF011
:102F70009150A1F0FF0FBB1F661F771F881FC2F77C
:102F80000EC0BA0F621F731F841F48F48795779590
:102F90006795B795F7959E3F08F0B0CF9395880F4A
:102FA00008F09927EE0F9795879508950E94DD17F1
:102FB0006894B1110C94941808950E94791888F0BF
:102FC0009F5798F0B92F9927B751B0F0E1F0660FED
:102FD000771F881F991F1AF0BA95C9F714C0B1302E
:102FE00091F00E949318B1E008950C949318672F04
:102FF000782F8827B85F39F0B93FCCF3869577955D
:103000006795B395D9F73EF4909580957095619545
:103010007F4F8F4F9F4F0895E89409C097FB3EF470
:1030200090958095709561957F4F8F4F9F4F992315
:10303000A9F0F92F96E9BB279395F6958795779593
:103040006795B795F111F8CFFAF4BB0F11F460FF53
:103050001BC06F5F7F4F8F4F9F4F16C0882311F0AB
:1030600096E911C0772321F09EE8872F762F05C0BF
:10307000662371F096E8862F70E060E02AF09A955A
:10308000660F771F881FDAF7880F9695879597F94F
:10309000089597F99F6780E870E060E008959FEFDA
:1030A00080EC089500240A941616170618060906DF
:1030B000089500240A9412161306140605060895AE
:1030C000092E0394000C11F4882352F0BB0F40F436
:1030D000BF2B11F460FF04C06F5F7F4F8F4F9F4F76
:1030E000089557FD9058440F551F59F05F3F71F0F8
:1030F0004795880F97FB991F61F09F3F79F087955F
:103100000895121613061406551FF2CF4695F1DFE7
:1031100008C0161617061806991FF1CF8695710577
:10312000610508940895E894BB2766277727CB01AB
:1031300097F908950E94AD180C9460180E945218D7
:1031400038F00E94591820F0952311F00C9449187A
:103150000C944F1811240C9494180E94711870F359
:10316000959FC1F3950F50E0551F629FF001729F2C
:10317000BB27F00DB11D639FAA27F00DB11DAA1F3B
:10318000649F6627B00DA11D661F829F2227B00D88
:10319000A11D621F739FB00DA11D621F839FA00D13
:1031A000611D221F749F3327A00D611D231F849F63
:1031B000600D211D822F762F6A2F11249F575040BA
:1031C0009AF0F1F088234AF0EE0FFF1FBB1F661F35
:1031D000771F881F91505040A9F79E3F510580F0FE
:1031E0000C9449180C9494185F3FE4F3983ED4F380
:1031F000869577956795B795F795E7959F5FC1F7A2
:10320000FE2B880F911D9695879597F908950E943A
:103210000C19880B990B0895990F0008550FAA0BEC
:10322000E0E8FEEF16161706E807F907C0F01216D9
:103230001306E407F50798F0621B730B840B950BDC
:1032400039F40A2661F0232B242B252B21F4089531
:103250000A2609F4A140A6958FEF811D811D0895CE
:10326000DB018F939F930E942D17BF91AF91A29F77
:10327000800D911DA39F900DB29F900D1124089574
:10328000991B79E004C0991F961708F0961B881FB8
:103290007A95C9F78095089597FB072E16F4009448
:1032A00007D077FD09D00E94671907FC05D03EF4CE
:1032B000909581959F4F0895709561957F4F0895E2
:1032C0000E945A17B7FF0895821B930B0895AA1BFB
:1032D000BB1B51E107C0AA1FBB1FA617B70710F001
:1032E000A61BB70B881F991F5A95A9F78095909533
:1032F000BC01CD010895EE0FFF1F0590F491E02D64
:103300000994FB01DC0102C001900D924150504034
:10331000D8F70895FB01DC018D910190801901100F
:10332000D9F3990B0895FB01DC014150504048F05E
:1033300001900D920020C9F701C01D9241505040EC
:08334000E0F70895F894FFCFB7
:10334800384B3536593045676738694B30783138EE
:1033580065454C57575F50346971507762354A64F8
:103368000052482020203D2030302E3020252020BB
:103378000054656D70203D2030302E3020432020D1
:10338800000000A30480000000400014005400FC6A
:1033980060DAF266B6BEE0FEF600000000E001402A
:1033A800016D012D029E017C019001000000007852
:1033B800054B058E063D0144053105220500000038
:1033C800005E0740018E06E306696E006F757400A3
:1033D80070776D007075006477006177007677000C
:0633E8004572726F7200D5
:00000001FF
